{
    "contractName": "Token",
    "abi": [
        {
            "inputs": [
                {
                    "internalType": "string",
                    "name": "_name",
                    "type": "string"
                },
                {
                    "internalType": "string",
                    "name": "_symbol",
                    "type": "string"
                },
                {
                    "internalType": "uint256",
                    "name": "_decimal",
                    "type": "uint256"
                },
                {
                    "internalType": "uint256",
                    "name": "_totalSupply",
                    "type": "uint256"
                }
            ],
            "stateMutability": "nonpayable",
            "type": "constructor"
        },
        {
            "anonymous": false,
            "inputs": [
                {
                    "indexed": true,
                    "internalType": "address",
                    "name": "from",
                    "type": "address"
                },
                {
                    "indexed": true,
                    "internalType": "address",
                    "name": "to",
                    "type": "address"
                },
                {
                    "indexed": false,
                    "internalType": "uint256",
                    "name": "token",
                    "type": "uint256"
                }
            ],
            "name": "Transfer",
            "type": "event"
        },
        {
            "anonymous": false,
            "inputs": [
                {
                    "indexed": true,
                    "internalType": "address",
                    "name": "owner",
                    "type": "address"
                },
                {
                    "indexed": true,
                    "internalType": "address",
                    "name": "sender",
                    "type": "address"
                },
                {
                    "indexed": false,
                    "internalType": "uint256",
                    "name": "token",
                    "type": "uint256"
                }
            ],
            "name": "approval",
            "type": "event"
        },
        {
            "inputs": [],
            "name": "TotalSupply",
            "outputs": [
                {
                    "internalType": "uint256",
                    "name": "",
                    "type": "uint256"
                }
            ],
            "stateMutability": "view",
            "type": "function"
        },
        {
            "inputs": [
                {
                    "internalType": "address",
                    "name": "_owner",
                    "type": "address"
                },
                {
                    "internalType": "address",
                    "name": "_spender",
                    "type": "address"
                }
            ],
            "name": "allowance",
            "outputs": [
                {
                    "internalType": "uint256",
                    "name": "",
                    "type": "uint256"
                }
            ],
            "stateMutability": "view",
            "type": "function"
        },
        {
            "inputs": [
                {
                    "internalType": "address",
                    "name": "_spender",
                    "type": "address"
                },
                {
                    "internalType": "uint256",
                    "name": "_numToken",
                    "type": "uint256"
                }
            ],
            "name": "approve",
            "outputs": [
                {
                    "internalType": "bool",
                    "name": "",
                    "type": "bool"
                }
            ],
            "stateMutability": "nonpayable",
            "type": "function"
        },
        {
            "inputs": [
                {
                    "internalType": "address",
                    "name": "_tokenOwner",
                    "type": "address"
                }
            ],
            "name": "balanceof",
            "outputs": [
                {
                    "internalType": "uint256",
                    "name": "",
                    "type": "uint256"
                }
            ],
            "stateMutability": "view",
            "type": "function"
        },
        {
            "inputs": [],
            "name": "decimal",
            "outputs": [
                {
                    "internalType": "uint256",
                    "name": "",
                    "type": "uint256"
                }
            ],
            "stateMutability": "view",
            "type": "function"
        },
        {
            "inputs": [],
            "name": "decimals",
            "outputs": [
                {
                    "internalType": "uint8",
                    "name": "",
                    "type": "uint8"
                }
            ],
            "stateMutability": "pure",
            "type": "function"
        },
        {
            "inputs": [],
            "name": "name",
            "outputs": [
                {
                    "internalType": "string",
                    "name": "",
                    "type": "string"
                }
            ],
            "stateMutability": "view",
            "type": "function"
        },
        {
            "inputs": [],
            "name": "names",
            "outputs": [
                {
                    "internalType": "string",
                    "name": "",
                    "type": "string"
                }
            ],
            "stateMutability": "view",
            "type": "function"
        },
        {
            "inputs": [],
            "name": "symbol",
            "outputs": [
                {
                    "internalType": "string",
                    "name": "",
                    "type": "string"
                }
            ],
            "stateMutability": "view",
            "type": "function"
        },
        {
            "inputs": [],
            "name": "symbols",
            "outputs": [
                {
                    "internalType": "string",
                    "name": "",
                    "type": "string"
                }
            ],
            "stateMutability": "view",
            "type": "function"
        },
        {
            "inputs": [],
            "name": "totalSupply",
            "outputs": [
                {
                    "internalType": "uint256",
                    "name": "",
                    "type": "uint256"
                }
            ],
            "stateMutability": "view",
            "type": "function"
        },
        {
            "inputs": [
                {
                    "internalType": "address",
                    "name": "_reciver",
                    "type": "address"
                },
                {
                    "internalType": "uint256",
                    "name": "_numToken",
                    "type": "uint256"
                }
            ],
            "name": "transfer",
            "outputs": [
                {
                    "internalType": "bool",
                    "name": "",
                    "type": "bool"
                }
            ],
            "stateMutability": "nonpayable",
            "type": "function"
        },
        {
            "inputs": [
                {
                    "internalType": "address",
                    "name": "_owner",
                    "type": "address"
                },
                {
                    "internalType": "address",
                    "name": "_spender",
                    "type": "address"
                },
                {
                    "internalType": "uint256",
                    "name": "_numToken",
                    "type": "uint256"
                }
            ],
            "name": "transferfrom",
            "outputs": [
                {
                    "internalType": "bool",
                    "name": "",
                    "type": "bool"
                }
            ],
            "stateMutability": "nonpayable",
            "type": "function"
        }
    ],
    "bytecode": "60806040523480156200001157600080fd5b5060405162000a8a38038062000a8a8339810160408190526200003491620001f7565b83516200004990600090602087019062000084565b5082516200005f90600190602086019062000084565b5060029190915560058190553360009081526003602052604090205550620002ae9050565b828054620000929062000271565b90600052602060002090601f016020900481019282620000b6576000855562000101565b82601f10620000d157805160ff191683800117855562000101565b8280016001018555821562000101579182015b8281111562000101578251825591602001919060010190620000e4565b506200010f92915062000113565b5090565b5b808211156200010f576000815560010162000114565b634e487b7160e01b600052604160045260246000fd5b600082601f8301126200015257600080fd5b81516001600160401b03808211156200016f576200016f6200012a565b604051601f8301601f19908116603f011681019082821181831017156200019a576200019a6200012a565b81604052838152602092508683858801011115620001b757600080fd5b600091505b83821015620001db5785820183015181830184015290820190620001bc565b83821115620001ed5760008385830101525b9695505050505050565b600080600080608085870312156200020e57600080fd5b84516001600160401b03808211156200022657600080fd5b620002348883890162000140565b955060208701519150808211156200024b57600080fd5b506200025a8782880162000140565b604087015160609097015195989097509350505050565b600181811c908216806200028657607f821691505b60208210811415620002a857634e487b7160e01b600052602260045260246000fd5b50919050565b6107cc80620002be6000396000f3fe608060405234801561001057600080fd5b50600436106100cf5760003560e01c80633d64125b1161008c57806395d89b411161006657806395d89b4114610190578063a44b47f714610198578063a9059cbb146101a0578063dd62ed3e146101b357600080fd5b80633d64125b1461014b57806363b0545f1461017457806376809ce31461018757600080fd5b8063056da048146100d457806306fdde03146100f257806307039ff9146100fa578063095ea7b31461010257806318160ddd14610125578063313ce5671461013c575b600080fd5b6100dc6101ec565b6040516100e991906105db565b60405180910390f35b6100dc61027e565b6100dc61030c565b61011561011036600461064c565b61031b565b60405190151581526020016100e9565b61012e60055481565b6040519081526020016100e9565b604051601281526020016100e9565b61012e610159366004610676565b6001600160a01b031660009081526003602052604090205490565b610115610182366004610691565b610387565b61012e60025481565b6100dc6104cf565b60055461012e565b6101156101ae36600461064c565b6104dc565b61012e6101c13660046106cd565b6001600160a01b03918216600090815260046020908152604080832093909416825291909152205490565b6060600080546101fb90610700565b80601f016020809104026020016040519081016040528092919081815260200182805461022790610700565b80156102745780601f1061024957610100808354040283529160200191610274565b820191906000526020600020905b81548152906001019060200180831161025757829003601f168201915b5050505050905090565b6000805461028b90610700565b80601f01602080910402602001604051908101604052809291908181526020018280546102b790610700565b80156103045780601f106102d957610100808354040283529160200191610304565b820191906000526020600020905b8154815290600101906020018083116102e757829003601f168201915b505050505081565b6060600180546101fb90610700565b3360008181526004602090815260408083206001600160a01b038716808552925280832085905551919290917f5c52a5f2b86fd16be577188b5a83ef1165faddc00b137b10285f16162e17792a906103769086815260200190565b60405180910390a350600192915050565b336000908152600360205260408120548211156103a357600080fd5b6001600160a01b038085166000908152600460209081526040808320938716835292905220548211156103d557600080fd5b336000908152600360205260409020546103ef908361058f565b336000908152600360209081526040808320939093556001600160a01b0387811683526004825283832090871683529052205461042c908361058f565b6001600160a01b038086166000908152600460209081526040808320938816835292815282822093909355600390925290205461046990836105b5565b6001600160a01b0380851660008181526003602052604090819020939093559151908616907fddf252ad1be2c89b69c2b068fc378daa952ba7f163c4a11628f55a4df523b3ef906104bd9086815260200190565b60405180910390a35060019392505050565b6001805461028b90610700565b336000908152600360205260408120548211156104f857600080fd5b33600090815260036020526040902054610512908361058f565b33600090815260036020526040808220929092556001600160a01b0385168152205461053e90836105b5565b6001600160a01b0384166000818152600360205260409081902092909255905133907fddf252ad1be2c89b69c2b068fc378daa952ba7f163c4a11628f55a4df523b3ef906103769086815260200190565b6000828211156105a1576105a161073b565b60006105ad8385610767565b949350505050565b6000806105c2838561077e565b9050838110156105d4576105d461073b565b9392505050565b600060208083528351808285015260005b81811015610608578581018301518582016040015282016105ec565b8181111561061a576000604083870101525b50601f01601f1916929092016040019392505050565b80356001600160a01b038116811461064757600080fd5b919050565b6000806040838503121561065f57600080fd5b61066883610630565b946020939093013593505050565b60006020828403121561068857600080fd5b6105d482610630565b6000806000606084860312156106a657600080fd5b6106af84610630565b92506106bd60208501610630565b9150604084013590509250925092565b600080604083850312156106e057600080fd5b6106e983610630565b91506106f760208401610630565b90509250929050565b600181811c9082168061071457607f821691505b6020821081141561073557634e487b7160e01b600052602260045260246000fd5b50919050565b634e487b7160e01b600052600160045260246000fd5b634e487b7160e01b600052601160045260246000fd5b60008282101561077957610779610751565b500390565b6000821982111561079157610791610751565b50019056fea2646970667358221220ad65beb4a825b031a4ed3119de6b0991f7a1a4819f9e3d647c1a4e1c1527496664736f6c634300080c0033",
    "sourcePath": "/home/user/Desktop/vs/contracts/Token.sol",
    "compiler": {
        "name": "solc",
        "version": "0.8.12+commit.f00d7308"
    },
    "functionHashes": {
        "TotalSupply()": "a44b47f7",
        "allowance(address,address)": "dd62ed3e",
        "approve(address,uint256)": "095ea7b3",
        "balanceof(address)": "3d64125b",
        "decimal()": "76809ce3",
        "decimals()": "313ce567",
        "name()": "06fdde03",
        "names()": "056da048",
        "symbol()": "95d89b41",
        "symbols()": "07039ff9",
        "totalSupply()": "18160ddd",
        "transfer(address,uint256)": "a9059cbb",
        "transferfrom(address,address,uint256)": "63b0545f"
    },
    "gasEstimates": {
        "creation": {
            "codeDepositCost": "399200",
            "executionCost": "infinite",
            "totalCost": "infinite"
        },
        "external": {
            "TotalSupply()": "2336",
            "allowance(address,address)": "infinite",
            "approve(address,uint256)": "24566",
            "balanceof(address)": "2560",
            "decimal()": "2362",
            "decimals()": "288",
            "name()": "infinite",
            "names()": "infinite",
            "symbol()": "infinite",
            "symbols()": "infinite",
            "totalSupply()": "2384",
            "transfer(address,uint256)": "53505",
            "transferfrom(address,address,uint256)": "infinite"
        }
    }
}