{
  "contractName": "Token",
  "abi": [
    {
      "inputs": [
        {
          "internalType": "string",
          "name": "_name",
          "type": "string"
        },
        {
          "internalType": "string",
          "name": "_symbol",
          "type": "string"
        },
        {
          "internalType": "uint256",
          "name": "_decimal",
          "type": "uint256"
        },
        {
          "internalType": "uint256",
          "name": "_totalSupply",
          "type": "uint256"
        }
      ],
      "stateMutability": "nonpayable",
      "type": "constructor"
    },
    {
      "anonymous": false,
      "inputs": [
        {
          "indexed": true,
          "internalType": "address",
          "name": "from",
          "type": "address"
        },
        {
          "indexed": true,
          "internalType": "address",
          "name": "to",
          "type": "address"
        },
        {
          "indexed": false,
          "internalType": "uint256",
          "name": "token",
          "type": "uint256"
        }
      ],
      "name": "Transfer",
      "type": "event"
    },
    {
      "anonymous": false,
      "inputs": [
        {
          "indexed": true,
          "internalType": "address",
          "name": "owner",
          "type": "address"
        },
        {
          "indexed": true,
          "internalType": "address",
          "name": "sender",
          "type": "address"
        },
        {
          "indexed": false,
          "internalType": "uint256",
          "name": "token",
          "type": "uint256"
        }
      ],
      "name": "approval",
      "type": "event"
    },
    {
      "inputs": [],
      "name": "decimal",
      "outputs": [
        {
          "internalType": "uint256",
          "name": "",
          "type": "uint256"
        }
      ],
      "stateMutability": "view",
      "type": "function",
      "constant": true
    },
    {
      "inputs": [],
      "name": "name",
      "outputs": [
        {
          "internalType": "string",
          "name": "",
          "type": "string"
        }
      ],
      "stateMutability": "view",
      "type": "function",
      "constant": true
    },
    {
      "inputs": [],
      "name": "symbol",
      "outputs": [
        {
          "internalType": "string",
          "name": "",
          "type": "string"
        }
      ],
      "stateMutability": "view",
      "type": "function",
      "constant": true
    },
    {
      "inputs": [],
      "name": "totalSupply",
      "outputs": [
        {
          "internalType": "uint256",
          "name": "",
          "type": "uint256"
        }
      ],
      "stateMutability": "view",
      "type": "function",
      "constant": true
    },
    {
      "inputs": [],
      "name": "names",
      "outputs": [
        {
          "internalType": "string",
          "name": "",
          "type": "string"
        }
      ],
      "stateMutability": "view",
      "type": "function",
      "constant": true
    },
    {
      "inputs": [],
      "name": "symbols",
      "outputs": [
        {
          "internalType": "string",
          "name": "",
          "type": "string"
        }
      ],
      "stateMutability": "view",
      "type": "function",
      "constant": true
    },
    {
      "inputs": [],
      "name": "decimals",
      "outputs": [
        {
          "internalType": "uint8",
          "name": "",
          "type": "uint8"
        }
      ],
      "stateMutability": "pure",
      "type": "function",
      "constant": true
    },
    {
      "inputs": [],
      "name": "TotalSupply",
      "outputs": [
        {
          "internalType": "uint256",
          "name": "",
          "type": "uint256"
        }
      ],
      "stateMutability": "view",
      "type": "function",
      "constant": true
    },
    {
      "inputs": [
        {
          "internalType": "address",
          "name": "_tokenOwner",
          "type": "address"
        }
      ],
      "name": "balanceof",
      "outputs": [
        {
          "internalType": "uint256",
          "name": "",
          "type": "uint256"
        }
      ],
      "stateMutability": "view",
      "type": "function",
      "constant": true
    },
    {
      "inputs": [
        {
          "internalType": "address",
          "name": "_reciver",
          "type": "address"
        },
        {
          "internalType": "uint256",
          "name": "_numToken",
          "type": "uint256"
        }
      ],
      "name": "transfer",
      "outputs": [
        {
          "internalType": "bool",
          "name": "",
          "type": "bool"
        }
      ],
      "stateMutability": "nonpayable",
      "type": "function"
    },
    {
      "inputs": [
        {
          "internalType": "address",
          "name": "_spender",
          "type": "address"
        },
        {
          "internalType": "uint256",
          "name": "_numToken",
          "type": "uint256"
        }
      ],
      "name": "approve",
      "outputs": [
        {
          "internalType": "bool",
          "name": "",
          "type": "bool"
        }
      ],
      "stateMutability": "nonpayable",
      "type": "function"
    },
    {
      "inputs": [
        {
          "internalType": "address",
          "name": "_owner",
          "type": "address"
        },
        {
          "internalType": "address",
          "name": "_spender",
          "type": "address"
        }
      ],
      "name": "allowance",
      "outputs": [
        {
          "internalType": "uint256",
          "name": "",
          "type": "uint256"
        }
      ],
      "stateMutability": "view",
      "type": "function",
      "constant": true
    },
    {
      "inputs": [
        {
          "internalType": "address",
          "name": "_owner",
          "type": "address"
        },
        {
          "internalType": "address",
          "name": "_spender",
          "type": "address"
        },
        {
          "internalType": "uint256",
          "name": "_numToken",
          "type": "uint256"
        }
      ],
      "name": "transferfrom",
      "outputs": [
        {
          "internalType": "bool",
          "name": "",
          "type": "bool"
        }
      ],
      "stateMutability": "nonpayable",
      "type": "function"
    }
  ],
  "bytecode": "0x60806040523480156200001157600080fd5b50604051620015733803806200157383398181016040528101906200003791906200034f565b83600090805190602001906200004f929190620000c7565b50826001908051906020019062000068929190620000c7565b508160028190555080600581905550600554600360003373ffffffffffffffffffffffffffffffffffffffff1673ffffffffffffffffffffffffffffffffffffffff168152602001908152602001600020819055505050505062000464565b828054620000d5906200042e565b90600052602060002090601f016020900481019282620000f9576000855562000145565b82601f106200011457805160ff191683800117855562000145565b8280016001018555821562000145579182015b828111156200014457825182559160200191906001019062000127565b5b50905062000154919062000158565b5090565b5b808211156200017357600081600090555060010162000159565b5090565b6000604051905090565b600080fd5b600080fd5b600080fd5b600080fd5b6000601f19601f8301169050919050565b7f4e487b7100000000000000000000000000000000000000000000000000000000600052604160045260246000fd5b620001e08262000195565b810181811067ffffffffffffffff82111715620002025762000201620001a6565b5b80604052505050565b60006200021762000177565b9050620002258282620001d5565b919050565b600067ffffffffffffffff821115620002485762000247620001a6565b5b620002538262000195565b9050602081019050919050565b60005b838110156200028057808201518184015260208101905062000263565b8381111562000290576000848401525b50505050565b6000620002ad620002a7846200022a565b6200020b565b905082815260208101848484011115620002cc57620002cb62000190565b5b620002d984828562000260565b509392505050565b600082601f830112620002f957620002f86200018b565b5b81516200030b84826020860162000296565b91505092915050565b6000819050919050565b620003298162000314565b81146200033557600080fd5b50565b60008151905062000349816200031e565b92915050565b600080600080608085870312156200036c576200036b62000181565b5b600085015167ffffffffffffffff8111156200038d576200038c62000186565b5b6200039b87828801620002e1565b945050602085015167ffffffffffffffff811115620003bf57620003be62000186565b5b620003cd87828801620002e1565b9350506040620003e08782880162000338565b9250506060620003f38782880162000338565b91505092959194509250565b7f4e487b7100000000000000000000000000000000000000000000000000000000600052602260045260246000fd5b600060028204905060018216806200044757607f821691505b602082108114156200045e576200045d620003ff565b5b50919050565b6110ff80620004746000396000f3fe608060405234801561001057600080fd5b50600436106100cf5760003560e01c80633d64125b1161008c57806395d89b411161006657806395d89b4114610218578063a44b47f714610236578063a9059cbb14610254578063dd62ed3e14610284576100cf565b80633d64125b1461019a57806363b0545f146101ca57806376809ce3146101fa576100cf565b8063056da048146100d457806306fdde03146100f257806307039ff914610110578063095ea7b31461012e57806318160ddd1461015e578063313ce5671461017c575b600080fd5b6100dc6102b4565b6040516100e99190610d2e565b60405180910390f35b6100fa610346565b6040516101079190610d2e565b60405180910390f35b6101186103d4565b6040516101259190610d2e565b60405180910390f35b61014860048036038101906101439190610de9565b610466565b6040516101559190610e44565b60405180910390f35b610166610558565b6040516101739190610e6e565b60405180910390f35b61018461055e565b6040516101919190610ea5565b60405180910390f35b6101b460048036038101906101af9190610ec0565b610567565b6040516101c19190610e6e565b60405180910390f35b6101e460048036038101906101df9190610eed565b6105b0565b6040516101f19190610e44565b60405180910390f35b610202610930565b60405161020f9190610e6e565b60405180910390f35b610220610936565b60405161022d9190610d2e565b60405180910390f35b61023e6109c4565b60405161024b9190610e6e565b60405180910390f35b61026e60048036038101906102699190610de9565b6109ce565b60405161027b9190610e44565b60405180910390f35b61029e60048036038101906102999190610f40565b610bb5565b6040516102ab9190610e6e565b60405180910390f35b6060600080546102c390610faf565b80601f01602080910402602001604051908101604052809291908181526020018280546102ef90610faf565b801561033c5780601f106103115761010080835404028352916020019161033c565b820191906000526020600020905b81548152906001019060200180831161031f57829003601f168201915b5050505050905090565b6000805461035390610faf565b80601f016020809104026020016040519081016040528092919081815260200182805461037f90610faf565b80156103cc5780601f106103a1576101008083540402835291602001916103cc565b820191906000526020600020905b8154815290600101906020018083116103af57829003601f168201915b505050505081565b6060600180546103e390610faf565b80601f016020809104026020016040519081016040528092919081815260200182805461040f90610faf565b801561045c5780601f106104315761010080835404028352916020019161045c565b820191906000526020600020905b81548152906001019060200180831161043f57829003601f168201915b5050505050905090565b600081600460003373ffffffffffffffffffffffffffffffffffffffff1673ffffffffffffffffffffffffffffffffffffffff16815260200190815260200160002060008573ffffffffffffffffffffffffffffffffffffffff1673ffffffffffffffffffffffffffffffffffffffff168152602001908152602001600020819055508273ffffffffffffffffffffffffffffffffffffffff163373ffffffffffffffffffffffffffffffffffffffff167f5c52a5f2b86fd16be577188b5a83ef1165faddc00b137b10285f16162e17792a846040516105469190610e6e565b60405180910390a36001905092915050565b60055481565b60006012905090565b6000600360008373ffffffffffffffffffffffffffffffffffffffff1673ffffffffffffffffffffffffffffffffffffffff168152602001908152602001600020549050919050565b6000600360003373ffffffffffffffffffffffffffffffffffffffff1673ffffffffffffffffffffffffffffffffffffffff168152602001908152602001600020548211156105fe57600080fd5b600460008573ffffffffffffffffffffffffffffffffffffffff1673ffffffffffffffffffffffffffffffffffffffff16815260200190815260200160002060008473ffffffffffffffffffffffffffffffffffffffff1673ffffffffffffffffffffffffffffffffffffffff1681526020019081526020016000205482111561068757600080fd5b6106d982600360003373ffffffffffffffffffffffffffffffffffffffff1673ffffffffffffffffffffffffffffffffffffffff16815260200190815260200160002054610c3c90919063ffffffff16565b600360003373ffffffffffffffffffffffffffffffffffffffff1673ffffffffffffffffffffffffffffffffffffffff168152602001908152602001600020819055506107ab82600460008773ffffffffffffffffffffffffffffffffffffffff1673ffffffffffffffffffffffffffffffffffffffff16815260200190815260200160002060008673ffffffffffffffffffffffffffffffffffffffff1673ffffffffffffffffffffffffffffffffffffffff16815260200190815260200160002054610c3c90919063ffffffff16565b600460008673ffffffffffffffffffffffffffffffffffffffff1673ffffffffffffffffffffffffffffffffffffffff16815260200190815260200160002060008573ffffffffffffffffffffffffffffffffffffffff1673ffffffffffffffffffffffffffffffffffffffff1681526020019081526020016000208190555061087d82600360008673ffffffffffffffffffffffffffffffffffffffff1673ffffffffffffffffffffffffffffffffffffffff16815260200190815260200160002054610c6990919063ffffffff16565b600360008573ffffffffffffffffffffffffffffffffffffffff1673ffffffffffffffffffffffffffffffffffffffff168152602001908152602001600020819055508273ffffffffffffffffffffffffffffffffffffffff168473ffffffffffffffffffffffffffffffffffffffff167fddf252ad1be2c89b69c2b068fc378daa952ba7f163c4a11628f55a4df523b3ef8460405161091d9190610e6e565b60405180910390a3600190509392505050565b60025481565b6001805461094390610faf565b80601f016020809104026020016040519081016040528092919081815260200182805461096f90610faf565b80156109bc5780601f10610991576101008083540402835291602001916109bc565b820191906000526020600020905b81548152906001019060200180831161099f57829003601f168201915b505050505081565b6000600554905090565b6000600360003373ffffffffffffffffffffffffffffffffffffffff1673ffffffffffffffffffffffffffffffffffffffff16815260200190815260200160002054821115610a1c57600080fd5b610a6e82600360003373ffffffffffffffffffffffffffffffffffffffff1673ffffffffffffffffffffffffffffffffffffffff16815260200190815260200160002054610c3c90919063ffffffff16565b600360003373ffffffffffffffffffffffffffffffffffffffff1673ffffffffffffffffffffffffffffffffffffffff16815260200190815260200160002081905550610b0382600360008673ffffffffffffffffffffffffffffffffffffffff1673ffffffffffffffffffffffffffffffffffffffff16815260200190815260200160002054610c6990919063ffffffff16565b600360008573ffffffffffffffffffffffffffffffffffffffff1673ffffffffffffffffffffffffffffffffffffffff168152602001908152602001600020819055508273ffffffffffffffffffffffffffffffffffffffff163373ffffffffffffffffffffffffffffffffffffffff167fddf252ad1be2c89b69c2b068fc378daa952ba7f163c4a11628f55a4df523b3ef84604051610ba39190610e6e565b60405180910390a36001905092915050565b6000600460008473ffffffffffffffffffffffffffffffffffffffff1673ffffffffffffffffffffffffffffffffffffffff16815260200190815260200160002060008373ffffffffffffffffffffffffffffffffffffffff1673ffffffffffffffffffffffffffffffffffffffff16815260200190815260200160002054905092915050565b600082821115610c4f57610c4e610fe1565b5b60008284610c5d919061103f565b90508091505092915050565b6000808284610c789190611073565b905083811015610c8b57610c8a610fe1565b5b8091505092915050565b600081519050919050565b600082825260208201905092915050565b60005b83811015610ccf578082015181840152602081019050610cb4565b83811115610cde576000848401525b50505050565b6000601f19601f8301169050919050565b6000610d0082610c95565b610d0a8185610ca0565b9350610d1a818560208601610cb1565b610d2381610ce4565b840191505092915050565b60006020820190508181036000830152610d488184610cf5565b905092915050565b600080fd5b600073ffffffffffffffffffffffffffffffffffffffff82169050919050565b6000610d8082610d55565b9050919050565b610d9081610d75565b8114610d9b57600080fd5b50565b600081359050610dad81610d87565b92915050565b6000819050919050565b610dc681610db3565b8114610dd157600080fd5b50565b600081359050610de381610dbd565b92915050565b60008060408385031215610e0057610dff610d50565b5b6000610e0e85828601610d9e565b9250506020610e1f85828601610dd4565b9150509250929050565b60008115159050919050565b610e3e81610e29565b82525050565b6000602082019050610e596000830184610e35565b92915050565b610e6881610db3565b82525050565b6000602082019050610e836000830184610e5f565b92915050565b600060ff82169050919050565b610e9f81610e89565b82525050565b6000602082019050610eba6000830184610e96565b92915050565b600060208284031215610ed657610ed5610d50565b5b6000610ee484828501610d9e565b91505092915050565b600080600060608486031215610f0657610f05610d50565b5b6000610f1486828701610d9e565b9350506020610f2586828701610d9e565b9250506040610f3686828701610dd4565b9150509250925092565b60008060408385031215610f5757610f56610d50565b5b6000610f6585828601610d9e565b9250506020610f7685828601610d9e565b9150509250929050565b7f4e487b7100000000000000000000000000000000000000000000000000000000600052602260045260246000fd5b60006002820490506001821680610fc757607f821691505b60208210811415610fdb57610fda610f80565b5b50919050565b7f4e487b7100000000000000000000000000000000000000000000000000000000600052600160045260246000fd5b7f4e487b7100000000000000000000000000000000000000000000000000000000600052601160045260246000fd5b600061104a82610db3565b915061105583610db3565b92508282101561106857611067611010565b5b828203905092915050565b600061107e82610db3565b915061108983610db3565b9250827fffffffffffffffffffffffffffffffffffffffffffffffffffffffffffffffff038211156110be576110bd611010565b5b82820190509291505056fea2646970667358221220206aed4e6acaf037040f3bf8a0920f00644aad2faf90aa73f790e976608607bb64736f6c634300080b0033",
  "immutableReferences": {},
  "source": "//SPDX-License-Identifier: jan\npragma solidity ^0.8.0;\n// impoting safemath lib to avoid unnecessary errors \n\nlibrary safeMath{\n\n    function safeSub(uint _a , uint _b) pure internal returns(uint){\n        assert(_b <= _a);\n        uint c = _a - _b;\n        return c;\n\n    }\n\n      function safeAdd(uint _a , uint _b) pure internal returns(uint){\n        uint c = _a + _b;\n        assert(c >= _a);\n        return c;\n\n    }\n}\n\n\ncontract Token {\n   \n       string public  name;\n       string public  symbol;\n       uint public decimal;\n\n       using safeMath for uint;\n\n       //mapping\n       mapping(address => uint) balance;\n       mapping(address => mapping(address => uint)) allowed;\n\n       //event\n       event Transfer(address indexed from , address indexed to , uint token );\n       event approval(address indexed owner, address indexed sender , uint token );\n\n        uint  public totalSupply ; \n       constructor(string memory _name, string memory _symbol, uint _decimal, uint  _totalSupply)  {\n           name = _name;\n           symbol = _symbol;\n          decimal = _decimal;\n          totalSupply = _totalSupply;\n          balance[msg.sender] = totalSupply;\n       }\n\n       function names() public view  returns (string memory) {\n        return name;\n    }\n\n    \n    function symbols() public view  returns (string memory) {\n        return symbol;\n    }\n\n       function decimals() pure public   returns (uint8) {\n        return 18;\n    }\n\n       function TotalSupply() view public   returns(uint){\n           return totalSupply;\n       }\n\n       \n\n       function balanceof(address _tokenOwner) view public returns(uint){\n           return balance[_tokenOwner];\n       }\n\n       function transfer(address _reciver , uint _numToken) public  returns(bool){\n           require(  _numToken <= balance[msg.sender]  );\n           balance[msg.sender] = balance[msg.sender] .safeSub(_numToken);\n           balance[_reciver] = balance[_reciver] .safeAdd(_numToken);\n           emit Transfer (msg.sender, _reciver,_numToken);\n           return true;\n\n\n       }\n\n       function approve(address _spender,uint _numToken) public returns(bool){\n           allowed[msg.sender][_spender] = _numToken;\n           emit approval(msg.sender, _spender , _numToken);\n           return true;\n       }\n\n       function allowance(address _owner  , address _spender) public view returns(uint){\n           return allowed[_owner][_spender];\n       }\n\n       function transferfrom(address _owner , address _spender \n       , uint _numToken) public returns(bool){\n           require(_numToken <= balance[msg.sender] );\n           require(_numToken <= allowed[_owner][_spender]);\n           balance[msg.sender]= balance[msg.sender] .safeSub (_numToken);\n           allowed[_owner][_spender] = allowed[_owner][_spender] .safeSub (_numToken);\n           balance[_spender] = balance[_spender] .safeAdd(_numToken);\n           emit Transfer(_owner, _spender , _numToken );\n           return true;\n           \n       }\n\n\n\n\n\n       \n\n\n }",
  "sourcePath": "/home/user/Desktop/vs/contracts/Token.sol",
  "compiler": {
    "name": "solc",
    "version": "0.8.11+commit.d7f03943.Emscripten.clang"
  },
  "schemaVersion": "3.4.4",
  "updatedAt": "2022-02-18T09:05:34.788Z",
  "networkType": "ethereum",
  "devdoc": {
    "kind": "dev",
    "methods": {},
    "version": 1
  },
  "userdoc": {
    "kind": "user",
    "methods": {},
    "version": 1
  }
}